:020000040800F2
:1000000000000220492700089927000899270008C6
:100010009927000899270008992700080000000088
:10002000000000000000000000000000F5030008D0
:10003000992700080000000019040008B103000817
:100040009927000899270008992700089927000890
:100050009927000899270008992700089927000880
:100060009927000899270008992700089927000870
:100070009927000899270008992700089927000860
:100080009927000899270008992700080000000018
:100090000000000000000000000000009927000898
:1000A0009927000899270008992700089927000830
:1000B0009927000899270008992700089927000820
:1000C0009927000899270008992700089927000810
:1000D00099270008B51D0008ED1D0008000000006C
:1000E00099270008992700089927000800000000B8
:1000F0000000000000000000000000009927000838
:100100000000000099270008992700089927000897
:1001100000000000000000000000000000000000DF
:1001200099270008992700089927000899270008AF
:1001300099270008000000000000000000000000F7
:1001400000000000000000000000000099270008E7
:10015000992700089927000899270008992700087F
:1001600099270008992700080000000000000000FF
:10017000000000000000000000000000000000007F
:10018000000000000000000000000000000000006F
:080190009927000899270008D7
:1001A00010B5054C237833B9044B13B10448AFF3B1
:1001B00000800123237010BD7000002000000000AB
:1001C0001431000808B5034B1BB103490348AFF3D2
:1001D000008008BD000000007400002014310008F9
:1001E00010F8012B11F8013B012A28BF9A42F7D0E1
:1001F000D01A70470000000000000000000000005E
:1002000001F0FF01102A2BDB10F0070F08D010F8C7
:10021000013B013A8B422DD010F0070F42B3F6D1CB
:10022000F0B441EA012141EA014122F007047FF0E4
:1002300000070023F0E80256083C85EA010586EA3B
:10024000010685FA47F5A3FA87F586FA47F6A5FA77
:1002500087F68EB9EED1F0BC01F0FF0102F0070283
:1002600032B110F8013B013A83EA010313B1F8D12E
:100270000020704701387047002D06BF354603380F
:10028000073815F0010F07D1013015F4807F02BF48
:10029000013015F4C03F0130F0BC0138704700BF99
:1002A00080B400AF064BD3F88830054A43F470039E
:1002B000C2F8883000BFBD465DF8047B704700BFC0
:1002C00000ED00E080B487B000AF344B9B6803F0D2
:1002D0000C033B613B69082B11D03B69082B44D8C8
:1002E0003B69002B03D03B69042B04D03DE02C4B31
:1002F0002C4A1A603DE02A4B2B4A1A6039E0274B02
:100300005B689B0D03F00103FB60244B5B6803F00B
:100310003F03BB60FB68002B0CD0234ABB68B2FBD9
:10032000F3F31E4A52689209C2F3080202FB03F378
:100330007B610BE01B4ABB68B2FBF3F3174A5268C0
:100340009209C2F3080202FB03F37B61134B5B6863
:100350001B0C03F0030301335B007B607A697B684D
:10036000B2FBF3F30E4A136003E00D4B0D4A1A6023
:1003700000BF0A4B9B681B0903F00F030B4AD35CB9
:100380003B61074B1A683B6922FA03F3044A136086
:1003900000BF1C37BD465DF8047B70470038024043
:1003A000000000200024F40040787D018432000821
:1003B00080B500AF054B1B6800F044FA0346012BE3
:1003C00001D000F059F800BF80BD00BF10E000E090
:1003D00080B485B000AF786039604FF0800383F35C
:1003E0001188BFF36F8FBFF34F8FFB6000BF00BF5B
:1003F000FDE70000064B19680868B0E8F04F80F38D
:100400000988BFF36F8F4FF0000080F311887047A9
:100410008C00002000BF00BFEFF30980BFF36F8F97
:10042000134B1A681EF0100F08BF20ED108A20E948
:10043000F04F106009B44FF0800080F31188BFF3D3
:100440004F8FBFF36F8F00F053F94FF0000080F330
:10045000118809BC19680868B0E8F04F1EF0100F49
:1004600008BFB0EC108A80F30988BFF36F8F704724
:100470008C00002000BF00BF80B582B000AF4FF0FD
:10048000800383F31188BFF36F8FBFF34F8F7B60BF
:1004900000BF00F013F80346002B03D0064B4FF0CB
:1004A00080521A6000233B603B6883F3118800BFD1
:1004B00000BF0837BD4680BD04ED00E080B58AB0BE
:1004C00000AF00237B627F4B1B68002B40F0F08065
:1004D0007D4B1B6801333B627B4A3B6A13603B6A7E
:1004E000002B21D1794B1B681B68002B0BD04FF0E0
:1004F000800383F31188BFF36F8FBFF34F8F7B604F
:1005000000BF00BFFDE7714B1B68FB61704B1B68B0
:100510006E4A13606E4AFB6913606E4B1B680133B1
:100520006C4A136000F072F96B4B1B683A6A9A428E
:10053000C0F0A980654B1B681B68002B04D1664B7B
:100540004FF0FF321A609EE0604B1B68DB68DB688F
:10055000BB61BB695B687B613A6A7B699A4203D283
:100560005D4A7B6913608EE0BB695B693B61BB6977
:100570009B68BA69D2689A60BB69DB68BA6992689D
:100580005A603B695A68BB6904339A4203D1BB691C
:10059000DA683B695A60BB6900225A613B691B6893
:1005A0005A1E3B691A60BB699B6A002B1ED0BB694F
:1005B0009B6AFB60BB69DB69BA69126A9A60BB69B6
:1005C0001B6ABA69D2695A60FB685A68BB691833FA
:1005D0009A4203D1BB691A6AFB685A60BB69002260
:1005E0009A62FB681B685A1EFB681A60BB69DA6A6C
:1005F0003A4B1B689A4203D9BB69DB6A374A1360DE
:10060000BB69DA6A364913469B0013449B000B44CE
:1006100004331B68BB60BB69BA689A60BB689A68A0
:10062000BB69DA60BB689B68BA6904325A60BB690F
:100630001A1DBB689A60BB69DA6A13469B001344B3
:100640009B00274A1A44BB695A61BB69DA6A24498C
:1006500013469B0013449B000B441B68BA69D26A83
:10066000591C1F4813469B0013449B000344196008
:10067000BB69DA6A1B4B1B68DB6A9A427FF65AAF8A
:1006800001237B6256E7174B1B68DA6A144913464D
:100690009B0013449B000B441B68012B01D90123D1
:1006A0007B62114B1B68002B07D001237B6204E0A7
:1006B0000E4B1B6801330D4A13607B6A18462837BE
:1006C000BD4680BD14050020F8040020F004002081
:1006D000F40400200C05002010050020FC0400207C
:1006E000900000208C000020080500200405002058
:1006F00080B586B000AF404B1B68002B03D03F4B4A
:1007000001221A6073E03D4B00221A603C4B1B68CB
:100710001B6B3B614FF0A533FB60394B1B681A68BC
:10072000374B1B681B6B9A4216D93B691B68FA68EA
:100730009A4211D13B6904331B68FA689A420BD183
:100740003B6908331B68FA689A4205D13B690C3350
:100750001B68FA689A4209D0294B1B683433BB6086
:10076000274B1B68B9681846FFF732FE254B1B68FC
:100770007B6111E07B69002B0BD14FF0800383F389
:100780001188BFF36F8FBFF34F8F3B6000BF00BF77
:10079000FDE77B69013B7B611B497A6913469B003E
:1007A00013449B000B441B68002BE3D07A6913466B
:1007B0009B0013449B00144A13447B607B685B6876
:1007C0005A687B685A607B685A687B6808339A422B
:1007D00003D17B68DA687B685A607B685B68DB689A
:1007E000074A1360074A7B691360054B1B6800BF0B
:1007F0001837BD4680BD00BF140500200805002045
:100800008C000020FC0400209000002080B400AF89
:100810000A4B1B681B68002B04D1094B4FF0FF32B9
:100820001A6005E0054B1B68DB681B68044A13600F
:1008300000BFBD465DF8047B704700BFF004002098
:100840001005002080B483B000AF0B4B1B68002B59
:1008500002D101237B6008E0084B1B68002B02D10A
:1008600002237B6001E000237B607B6818460C3725
:10087000BD465DF8047B704700050020140500208C
:1008800080B582B000AF304B1B6B2F4A43F00103A1
:1008900013632D4B5B6C2C4A43F480735364002329
:1008A000C0220421294800F079FA294B5B68284AC4
:1008B00023F403035360264B5B68254A43F440331B
:1008C0005360244B9B68234A23F001039360214B20
:1008D00000225A601F4B00229A601E4B0022DA62EF
:1008E0001C4B00221A631B4B00225A63194B4FF416
:1008F00000629A60174B9B68164A43F001039360AD
:1009000000237B6002E07B6801337B607B68B3F58A
:100910007A7FF8D30F4B1B690E4A23F4E04313612F
:100920000C4B1B690B4A43F4E0431361094BDB6A30
:10093000084A23F47003D362064B04225A6300BFB3
:100940000837BD4680BD00BF0038024000000240AD
:10095000002301400020014080B483B000AF124B5F
:100960007B60124B9B68114A43F08043936008E020
:100970007B68013B7B607B68002B02D14FF6FF73E5
:100980000BE00A4B1B6803F00203002BF0D0074B6F
:10099000DB6C9BB2C3F30B039BB218460C37BD460E
:1009A0005DF8047B704700BFA08601000020014075
:1009B00080B582B000AF78600D4A7B6813600C4B45
:1009C00001221A710A4B93E8030000F067FB012033
:1009D00000F010F80A2001F00DFC072000F00AF8E2
:1009E0000A2001F007FC00BF0837BD4680BD00BFEC
:1009F0001805002080B582B000AF0346FB71144B90
:100A000093E8030000F0D0FB0346002B17D11049F8
:100A10000023232203C900F0EFFB0346002B10D173
:100A2000FB790B491A4603C900F040FC0346002B32
:100A300009D1074B93E8030000F047FD04E000BF35
:100A400002E000BF00E000BF0837BD4680BD00BF28
:100A50001805002080B582B000AF0023BB801C4B7E
:100A600093E8030000F0A0FB0346002B01D0002315
:100A700029E017490123232203C900F0BDFB0346E7
:100A8000002B01D000231EE03A1D1149022303C9A7
:100A900000F092FC0346002B06D00D4B93E80300B8
:100AA00000F013FD00230EE0094B93E8030000F073
:100AB0000CFD3B791BB21B021AB27B791BB21343AC
:100AC0001BB2FB80FB8818460837BD4680BD00BFBF
:100AD0001805002080B584B000AF0346FB710023E9
:100AE000FB810120FFF786FF0A2001F083FBFB79E1
:100AF0001846FFF77FFF782001F07CFBFFF7AAFF85
:100B00000346FB81FB89002B01D10C4B0EE000203A
:100B1000FFF770FFFB8907EE903AB8EE677ADFEDDA
:100B2000086AC7EE267AC7ED027ABB6807EE903AEC
:100B3000B0EE670A1037BD4680BD00BF000080BF21
:100B40009A99993F80B483B000AF78600B46FB70F0
:100B5000064A7B681360FB789AB2054B1A8000BF87
:100B60000C37BD465DF8047B704700BF20050020B0
:100B70002405002080B584B000AF03463960FB71C6
:100B800001F024FBF86009E001F020FB0246FB685D
:100B9000D31A3A689A4201D800230EE0094B1B6829
:100BA000094A1288D2B21146184600F0EBF9034602
:100BB0001A46FB799342E7D1012318461037BD4608
:100BC00080BD00BF200500202405002080B582B034
:100BD00000AFC8210120FFF7CDFF01F0F7FA7860E0
:100BE000C8210020FFF7C6FF01F0F0FA02467B683B
:100BF000D31A3B603B68282B8CBF01230023DBB258
:100C000018460837BD4680BD80B500AF224B186836
:100C1000224B1B88D9B200235D2200F0BFF81E4B87
:100C20001B681E4A1288D1B20022184600F0BFF994
:100C3000142001F0DFFA184B1B68184A1288D1B251
:100C40000122184600F0B3F9134B1868134B1B88A8
:100C5000D9B20023002200F0A1F8C8210020FFF73C
:100C600089FF0346002B01D1002312E0C821012097
:100C7000FFF780FF0346002B01D1002309E0C821C4
:100C80000020FFF777FF0346002B01D1002300E08F
:100C90000123184680BD00BF200500202405002048
:100CA00080B584B000AF78600023FB730023BB7372
:100CB00013E0FFF78BFF0346002B0BD0BB7BC3F188
:100CC0000703012202FA03F35AB297F90F301343D4
:100CD0005BB2FB73BB7B0133BB73BB7B072BE8D9D8
:100CE0007B68FA7B1A70012318461037BD4680BD19
:100CF00080B584B000AF7860FFF786FF0346002B15
:100D000046D007F10F031846FFF7CAFF0346002B32
:100D100001D100233DE007F10E031846FFF7C0FFA5
:100D20000346002B01D1002333E007F10D031846E1
:100D3000FFF7B6FF0346002B01D1002329E007F19E
:100D40000C031846FFF7ACFF0346002B01D100232C
:100D50001FE007F10B031846FFF7A2FF0346002B25
:100D600001D1002315E0FA7BBB7B1344DAB27B7B15
:100D70001344DAB23B7B1344DAB2FB7A9A4207D1CE
:100D8000FA7B7B681A707A7B7B685A70012300E0DB
:100D9000002318461037BD4680BD000080B483B0E4
:100DA00000AF7860084611461A460346FB700B46B2
:100DB000BB7013467B707B686B4A934206D16B4BCA
:100DC0001B6B6A4A43F00103136335E07B68684A92
:100DD000934206D1654B1B6B644A43F002031363D5
:100DE0002AE07B68634A934206D1604B1B6B5F4AE3
:100DF00043F0040313631FE07B685F4A934206D10C
:100E00005A4B1B6B594A43F00803136314E07B6889
:100E10005A4A934206D1554B1B6B544A43F0100378
:100E2000136309E07B68564A934205D14F4B1B6B15
:100E30004E4A43F0800313637B681A68FB785B00BB
:100E4000032101FA03F3DB431A407B681A607B68D5
:100E50001B68BA789209D2B21146FA78520001FAA8
:100E600002F21A437B681A607B685A68FB7801219A
:100E700001FA03F3DB431A407B685A607B685B68C6
:100E8000BA78121102F00301FA7801FA02F21A4359
:100E90007B685A607B689A68FB785B00032101FAE3
:100EA00003F3DB431A407B689A607B689B68BA78DF
:100EB000921002F00301FA78520001FA02F21A438A
:100EC0007B689A607B68DA68FB785B00032101FA33
:100ED00003F3DB431A407B68DA607B68DB68BA782F
:100EE00002F00301FA78520001FA02F21A437B6819
:100EF000DA60BB7803F0C003802B2FD1FB78072B7F
:100F000015D87B681A6AFB789B000F2101FA03F35E
:100F1000DB431A407B681A627B681B6A7978FA782F
:100F2000920001FA02F21A437B681A6216E07B68AB
:100F30005A6AFB78083B9B000F2101FA03F3DB435D
:100F40001A407B685A627B685B6A7978FA78083A5B
:100F5000920001FA02F21A437B685A6200BF0C3712
:100F6000BD465DF8047B7047000002400038024037
:100F70000004024000080240000C02400010024041
:100F8000001C024080B483B000AF78600B46FB7059
:100F90007B681A69FB7822FA03F3DBB203F00103E2
:100FA000DBB218460C37BD465DF8047B704780B451
:100FB00083B000AF78600B46FB701346BB70BB7804
:100FC000002B05D0FB7801229A407B689A6105E0EE
:100FD000FB78103301229A407B689A6100BF0C377E
:100FE000BD465DF8047B704780B487B000AFF86001
:100FF0000B467A60FB7200237B617B68234AA2FB6D
:1010000003239B0C03F03F02FB685A60FB7A002B22
:1010100022D07B6803F5432303F5A0631B0A1C4A17
:10102000A2FB03231B097B617B69C3F30B0343F41E
:101030000042FB68DA617B68144AA2FB03239B0C25
:101040004FF4967202FB03F3124AA2FB03239B099F
:101050005A1CFB681A6213E07B689B090E4AA2FBCC
:1010600003239B097B617B69C3F30B02FB68DA6195
:101070007B68064AA2FB03239B0C5A1CFB681A627E
:1010800000BF1C37BD465DF8047B704783DE1B4301
:10109000598B4F01D34D6210632D3E0580B582B050
:1010A00000AF3B4683E803003B68384A934212D1C5
:1010B000374B1B6C364A43F40013136404239D2200
:1010C00006213448FFF76AFE04239D220721314898
:1010D000FFF764FE32E03B682F4A934212D12C4B5B
:1010E0001B6C2B4A43F48003136404239D220A21C2
:1010F0002848FFF753FE04239D2203212548FFF7CC
:101100004DFE1BE03B68254A934217D1204B1B6CD8
:101110001F4A43F4000313641D4B1B6B1C4A43F02E
:101120000303136309239D2208211D48FFF736FEA0
:1011300009239D2204211748FFF730FE3B681A68F7
:101140003B6822F001021A603B681A683B6842F46F
:1011500000421A603B681A683B6822F400421A6039
:101160003B6839790F4A1846FFF73EFF3B681A681B
:101170003B6842F080021A603B681A683B6842F0A4
:1011800001021A6000BF0837BD4680BD0054004010
:10119000003802400004024000580040005C00405B
:1011A00000000240006CDC0280B485B000AF3B461A
:1011B00083E803000F4BFB603B681A683B6842F40E
:1011C00080721A6008E0FB68013BFB60FB68002B43
:1011D00002D14FF0FF3306E03B685B6903F0010387
:1011E000002BF0D0002318461437BD465DF8047B71
:1011F000704700BFA086010090B587B000AF07F12F
:10120000080484E8030011461A460B46FB71134696
:10121000BB71254B7B61FB795A00BB7903F001035D
:101220001A43BB681A6114E07B69013B7B617B69EF
:10123000002B0ED107F1080393E8030000F045F9F5
:10124000BB685A69BB6822F480625A614FF0FF3371
:1012500025E0BB685B6903F00203002B05D1BB6886
:101260005B6903F48063002BDED0BB685B6903F429
:101270008063002B0ED007F1080393E8030000F011
:1012800024F9BB685A69BB6822F480625A614FF046
:10129000FF3304E0BB685B69BB689B6900231846A9
:1012A0001C37BD4690BD00BFA086010080B487B04A
:1012B00000AF07F1080383E803001346FB71174BE7
:1012C0007B6108E07B69013B7B617B69002B02D17C
:1012D0004FF0FF331BE0BB685B6903F08003002B1A
:1012E000F0D0BB68FA791A610C4B7B6108E07B692E
:1012F000013B7B617B69002B02D14FF0FF3306E09D
:10130000BB685B6903F08003002BF0D00023184614
:101310001C37BD465DF8047B704700BFA086010006
:1013200090B587B000AF07F1080484E803007A6045
:101330003B6000237B6113E07B697A6813441B7870
:101340001A4607F1080393E80300FFF7AFFF0346CF
:10135000002B02D04FF0FF3307E07B6901337B6144
:101360007A693B689A42E7DB002318461C37BD4682
:1013700090BD000080B485B000AF3B4683E8030019
:101380000C4BFB6008E0FB68013BFB60FB68002B3B
:1013900002D14FF0FF3307E03B685B6903F0400385
:1013A000002BF0D03B681B6918461437BD465DF82A
:1013B000047B7047A086010090B589B000AF07F1AB
:1013C000080484E803007A603B603B68002B02DC81
:1013D0004FF0FF3351E03B68012B18D107F10803B0
:1013E00093E8030000F04DF807F1080393E80300C9
:1013F000FFF7C0FF78617B69002B02DA4FF0FF3303
:101400003BE07B69DAB27B681A70002335E0002389
:10141000FB6127E03B68013BFA699A4206D107F17C
:10142000080393E8030000F02CF805E007F1080337
:1014300093E8030000F037F807F1080393E803008E
:10144000FFF798FFB861BB69002B02DA4FF0FF335A
:1014500013E0FB697A681344BA69D2B21A70FB6967
:101460000133FB61FA693B689A42D3DB07F1080359
:1014700093E8030000F017F8002318462437BD4610
:1014800090BD80B483B000AF3B4683E803003B6867
:101490001A683B6822F480621A6000BF0C37BD46B0
:1014A0005DF8047B704780B483B000AF3B4683E8AF
:1014B00003003B681A683B6842F480621A6000BF10
:1014C0000C37BD465DF8047B704780B483B000AF35
:1014D0003B4683E803003B681A683B6842F40072AD
:1014E0001A6000BF0C37BD465DF8047B70470000F2
:1014F00080B582B000AF0346FB71104B93E8030048
:10150000FFF752FE0D4900233C2203C9FFF774FE8A
:101510000A4B002293E80300FFF7C8FEFB79074956
:101520001A4603C9FFF7C2FE044B93E80300FFF716
:10153000CCFF00BF0837BD4680BD00BF500900206A
:1015400080B582B000AF78600B467B800F4B93E88C
:101550000300FFF729FE0D4900233C2203C9FFF7D2
:101560004BFE0A4B402293E80300FFF79FFE7B8867
:1015700006497A6803C9FFF7D3FE044B93E80300DA
:10158000FFF7A3FF00BF0837BD4680BD500900200C
:1015900080B582B000AF7860344A7B681360334B0B
:1015A00001221A71314B93E80300FFF777FD6420A5
:1015B00000F020FEAE20FFF79BFF0120FFF798FF11
:1015C000B020FFF795FF8120FFF792FFFF20FFF784
:1015D0008FFFA120FFF78CFFA620FFF789FFA8202F
:1015E000FFF786FF3F20FFF783FFAD20FFF780FF67
:1015F0008B20FFF77DFF3220FFF77AFFC820FFF72F
:1016000077FFD320FFF774FF0020FFF771FFD5208D
:10161000FFF76EFF8020FFF76BFFD920FFF768FF11
:101620001F20FFF765FFDA20FFF762FF1220FFF7A8
:101630005FFFDB20FFF75CFF4020FFF759FFAF2083
:10164000FFF756FF002000F041F800F013F8084BB8
:1016500000221A80064B00225A80054B01225A7143
:10166000012318460837BD4680BD00BF5009002041
:101670004809002080B582B000AF0023FB711AE05A
:10168000FB79503BDBB21846FFF732FF0120FFF732
:101690002FFF1020FFF72CFFFA7913465B0113444C
:1016A0009B001A46084B134484211846FFF748FF55
:1016B000FB790133FB71FB79072BE1D900BF00BF38
:1016C0000837BD4680BD00BF2805002080B582B028
:1016D00000AF0346FB71FB79002B01D1002300E032
:1016E000FF234FF484621946034801F08DF800BFD0
:1016F0000837BD4680BD00BF2805002090B482B0E9
:1017000000AF0346FB800B46BB801346FB70FB8893
:10171000832B54D8BB883F2B51D82B4B1B79002BE4
:1017200006D0FB78002B0CBF01230023DBB2FB703B
:10173000FB78012B20D1FA88BB88DB0898B20146E0
:101740000B465B010B449B001344204AD35C5AB206
:10175000BB8803F00703012101FA03F35BB21343D3
:101760005CB2FA8801460B465B010B449B001344B4
:10177000E1B2164AD15423E0FA88BB88DB0898B25C
:1017800001460B465B010B449B0013440F4AD35C9C
:101790005AB2BB8803F00703012101FA03F35BB2DD
:1017A000DB435BB213405CB2FA8801460B465B0137
:1017B0000B449B001344E1B2044AD15400E000BF43
:1017C0000837BD4690BC7047480900202805002016
:1017D00080B483B000AF03460A46FB801346BB804B
:1017E000054AFB881380044ABB88538000BF0C372E
:1017F000BD465DF8047B70474809002080B586B07F
:1018000000AF03463960FB711346BB71394B1B882F
:101810001A463B681B781344832B07DC354B5B88E7
:101820001A463B685B7813443F2B01DD00235DE0E3
:1018300000237B614BE03B685A68FB79203B3968A9
:10184000497801FB03F319467B690B445B001344A1
:101850001B88FB6000233B6130E0FA683B6902FAB9
:1018600003F303F40043002B10D0224B1A883B698A
:101870009BB2134498B21F4B5A887B699BB21344A6
:101880009BB2BA791946FFF739FF14E0194B1A8851
:101890003B699BB2134498B2164B5A887B699BB242
:1018A000134499B2BB79002B0CBF01230023DBB298
:1018B0001A46FFF723FF3B6901333B613B681B7806
:1018C0001A463B699342C8D37B6901337B613B680D
:1018D0005B781A467B699342ADD3064B1B883A6806
:1018E000127813449AB2034B1A80FB7918461837C2
:1018F000BD4680BD4809002080B584B000AFF860C7
:10190000B9601346FB7112E0FB681B78FA79B9687D
:101910001846FFF773FF03461A46FB681B789A4286
:1019200002D0FB681B7808E0FB680133FB60FB68B2
:101930001B78002BE8D1FB681B7818461037BD4692
:1019400080BD000080B483B000AF0346FB7197F9FF
:101950000730002B0BDBFB7903F01F02074997F9D7
:1019600007305B09012000FA02F241F8232000BF92
:101970000C37BD465DF8047B704700BF00E100E016
:1019800080B483B000AF03463960FB7197F907302C
:10199000002B0ADB3B68DAB20C4997F907301201D9
:1019A000D2B20B4483F800230AE03B68DAB208495C
:1019B000FB7903F00F03043B1201D2B20B441A76F9
:1019C00000BF0C37BD465DF8047B704700E100E0C6
:1019D00000ED00E080B485B000AF7860174B1B6865
:1019E000FB607B68164A934210D1164B9B685B0BD9
:1019F00003F00703BB60144ABB6813441B78BB6049
:101A0000FA68BB6822FA03F3FB600FE00D4B9B689A
:101A10009B0A03F00703BB600B4ABB6813441B78A7
:101A2000BB60FA68BB6822FA03F3FB60FB681846E8
:101A30001437BD465DF8047B704700BF00000020EE
:101A400000100140003802409432000880B582B096
:101A500000AF78607B681B68124A93420CD1072361
:101A60008C2209211048FFF799F907238C220A21BB
:101A70000D48FFF793F910E07B681B680B4A93420F
:101A80000BD107238C2202210748FFF787F9072390
:101A90008C2203210448FFF781F900BF0837BD46B7
:101AA00080BD00BF00100140000002400044004023
:101AB00080B586B000AF78607B681B686D4A934242
:101AC00006D16D4B5B6C6C4A43F0100353640AE023
:101AD0007B681B68694A934205D1674B1B6C664A59
:101AE00043F4003313647868FFF7B0FF7B681B682A
:101AF0001846FFF76FFFF860FA6813469B0013441F
:101B00005B001A467B689B681B01B2FBF3F3BB606A
:101B1000BB685B4AA2FB0323DB087B61B968584BB7
:101B2000A3FB0123DA0813469B0013445B00CA1A87
:101B30001301534AA2FB0323DB083B613B690F2BD4
:101B400004D97B6901337B6100233B617B69190107
:101B50003B6903F00F027B681B680A439A607B684D
:101B60001B68DA687B681B6822F40052DA607B68C5
:101B70001B79012B08D17B681B685A697B681B683D
:101B800042F008025A6107E07B681B685A697B686B
:101B90001B6822F008025A617B685B7B002B08D02F
:101BA0007B681B685A697B681B6842F080025A6137
:101BB00007E07B681B685A697B681B6822F080021B
:101BC0005A617B689B7B002B08D07B681B685A6935
:101BD0007B681B6842F040025A6107E07B681B6823
:101BE0005A697B681B6822F040025A617B681B7B44
:101BF000002B08D07B681B685A697B681B6842F41D
:101C000040725A6107E07B681B685A697B681B68F1
:101C100022F440725A617B681B68DB687A6812683C
:101C200043F4005343F00C03D3607B681B68DA680D
:101C30007B681B6842F02002DA607B681B680D4AF3
:101C4000934207D12520FFF77DFE01212520FFF7D4
:101C500097FE0BE07B681B68084A934206D126205A
:101C6000FFF770FE01212620FFF78AFE00BF18371C
:101C7000BD4680BD001001400038024000440040D5
:101C8000CDCCCCCC80B485B000AF78600B46FB7077
:101C9000164BFB6005E0FB68013BFB60FB68002B1B
:101CA0001BD07B681B681B6803F08003002BF2D0FD
:101CB0007B681B68FA785A600C4BFB6005E0FB6898
:101CC000013BFB60FB68002B09D07B681B681B682D
:101CD00003F04003002BF2D002E000BF00E000BFA1
:101CE0001437BD465DF8047B704700BFA086010035
:101CF00080B582B000AF7860396007E03B685A1C5D
:101D00003A601B7819467868FFF7BCFF3B681B7880
:101D1000002BF3D100BF00BF0837BD4680BD0000D7
:101D200080B485B000AF78607B681B680E4A934230
:101D300004D10E4BFB600E4BBB6003E00D4BFB6010
:101D40000D4BBB6000BFFB681B78DBB2002BFAD0E9
:101D5000FB6800221A70BB681B78DBB21846143788
:101D6000BD465DF8047B7047001001405909002012
:101D7000580900205B0900205A09002080B483B074
:101D800000AF78607B681B68074A934203D1074B1A
:101D90001B78DBB202E0064B1B78DBB218460C372F
:101DA000BD465DF8047B70470010014059090020D2
:101DB0005B09002080B400AF094B1B6803F02003CF
:101DC000002B07D0064B5B68DAB2064B1A70064B45
:101DD00001221A7000BFBD465DF8047B704700BF4A
:101DE00000100140580900205909002080B400AFBC
:101DF000094B1B6803F02003002B07D0064B5B68E0
:101E0000DAB2064B1A70064B01221A7000BFBD46AB
:101E10005DF8047B704700BF004400405A09002071
:101E20005B09002080B500AF064B00221A7000202D
:101E300000F01CFA002000F043FA034B00221A6065
:101E400000BF80BD5C0900206009002080B582B021
:101E500000AF0346FB710A4AFB791370084B1B78ED
:101E6000002B04D107490848FFF742FF03E0074968
:101E70000548FFF73DFF00BF0837BD4680BD00BFE6
:101E80005C0900202C3100080C00002038310008CB
:101E900080B500AF224B1B88272B0AD8214B1B781B
:101EA000002B02D11F4B01221A701F4B00221A6017
:101EB0000DE01B4B1B88462B09D91A4B1B78012BB5
:101EC00002D1184B00221A70174B00221A60174BD0
:101ED0001B78312B0AD8164B1B78002B02D1144BE0
:101EE00001221A70134B00221A600DE00F4B1B7871
:101EF000462B09D90E4B1B78012B02D10C4B00222B
:101F00001A700C4B00221A60064B1B78184600F022
:101F1000ADF9074B1B78184600F0D2F900BF80BD21
:101F2000880900206C090020640900208009002035
:101F30006D0900206809002080B582B000AF78608C
:101F400038497868FEF74CF90346002B0BD1364B25
:101F50001B78012B02D1012000F088F93349344865
:101F6000FFF7C6FE5AE033497868FEF739F90346B1
:101F7000002B0BD12C4B1B78012B02D1002000F041
:101F800075F92D492A48FFF7B3FE47E02B497868D9
:101F9000FEF726F90346002B0BD1234B1B78012BB0
:101FA00002D1012000F08CF925492148FFF7A0FE5D
:101FB00034E024497868FEF713F90346002B0BD16F
:101FC000194B1B78012B02D1002000F079F91E4932
:101FD0001748FFF78DFE21E01C497868FEF700F9ED
:101FE0000346002B07D10020FFF730FF18491048A7
:101FF000FFF77EFE12E017497868FEF7F1F8034616
:10200000002B07D10120FFF721FF13490848FFF7F4
:102010006FFE03E011490648FFF76AFE00BF08376C
:10202000BD4680BD483100085C09002050310008E1
:102030000C000020603100086C3100087C31000881
:102040008431000894310008A0310008B031000844
:10205000BC310008D0310008E0310008F43100083C
:1020600090B58BB000AF00F09DF838623748FFF7AD
:1020700085FE0346002B55D0002387F827303B46CA
:1020800020220021184600F0BFFB0FE097F8273010
:102090005A1C87F827201C462C48FFF741FE0346B0
:1020A0001A4604F128033B4403F8282C2748FFF77D
:1020B00065FE0346002B03D097F827301E2BE5D989
:1020C00097F8273028333B44002203F8282C0023BC
:1020D00087F826301CE097F8263028333B4413F865
:1020E000283C0D2B07D097F8263028333B4413F8B3
:1020F000283C0A2B07D197F8263028333B4400228E
:1021000003F8282C0AE097F82630013387F82630A8
:1021100097F8262097F827309A42DCD33B4618469A
:10212000FFF70AFF0A4B1B78002B0BD1094B1B68EA
:102130003A6AD31AB3F5FA6F04D3FFF7A9FE054A3A
:102140003B6A136000BF2C37BD4690BD0C000020D9
:102150005C0900207009002080B500AF094BDB68E6
:10216000084A43F08073D360074B00225A60064B45
:102170001B68054A43F001031360FEF7A3F800BF94
:1021800080BD00BFF0ED00E0001000E080B400AFC3
:10219000034B5B681846BD465DF8047B704700BF83
:1021A000001000E080B500AFFFF7F0FF0246054BDE
:1021B0001B680549A1FB03139B09B2FBF3F3184607
:1021C00080BD00BF00000020D34D621080B500AF7D
:1021D000FFF7DCFF0246054B1B680549A1FB031313
:1021E0009B0CB2FBF3F3184680BD00BF000000203B
:1021F00083DE1B4380B584B000AF78600D4B1B6855
:102200000D4AA2FB03239A097B6802FB03F37B6060
:10221000FFF7BCFFF86000BFFFF7B8FF0246FB689E
:10222000D31A7A689A42F7D800BF00BF1037BD466C
:1022300080BD00BF00000020D34D621080B582B089
:1022400000AF78600B46FB70F97800234C22786869
:10225000FEF7A4FDFB781033012202FA03F31A46BD
:102260007B689A6100BF0837BD4680BD80B483B0EB
:1022700000AF0346FB71FB79002B14BF0123002341
:10228000DBB21A460C4B1A700B4B1B78002B0AD092
:102290000A4B9B69094A23F001039361074B4FF4F2
:1022A00080329A6102E0054B01229A6100BF0C372F
:1022B000BD465DF8047B70477409002000040240AD
:1022C00080B483B000AF0346FB71FB79002B14BFD1
:1022D00001230023DBB21A46094B1A70084B1B7806
:1022E000002B04D0074B4FF400329A6102E0054BFB
:1022F00002229A6100BF0C37BD465DF8047B70472F
:10230000750900200004024090B59DB004AFFDF7B0
:10231000C7FF00F007F9FFF71FFF5B48FFF738F929
:102320005948FEF745FB05215848FEF70BFCFEF720
:10233000A7FA5748FFF7BCFB00215448FFF77EFF80
:1023400001215248FFF77AFFFFF76CFD00234C2272
:102350000D215048FEF722FD4F4A5049504800F0E9
:1023600073F94FF4FA70FFF745FF4A4B5B69494A2E
:1023700083F4005353614B48FEF7BAFC0346002B2D
:102380000DD0484B5B781A46464B1B7807F124006A
:1023900000931346444A132100F000FA06E007F1C7
:1023A0002403424A1321184600F0F8F9FEF7D4FA44
:1023B00003461A463E4B1A801020FEF78BFBF0EEC8
:1023C000407A3C4BC3ED007A3A4BD3ED007AF5EE00
:1023D000C07AF1EE10FA16DB364BD3ED007AFCEE44
:1023E000E77A17EE903A9BB21946314B1B881A4692
:1023F00007F1240303F1130000920B462E4A132128
:1024000000F0CCF907E007F1240313332B4A132122
:10241000184600F0C3F9234B5B781C46214B1B7810
:102420001A46244BD3ED007AFCEEE77A17EE903A89
:102430009BB219461E4B1B88381D029301910092D6
:1024400023461F4A202100F0A9F93B1D19461048D8
:10245000FFF74EFC3B1D20220021184600F0D4F966
:1024600007F1240303F1260207F1240303F113010A
:1024700007F12403184600F0E7F8FFF7F1FD4FF4E9
:102480007A70FFF7B7FE70E7005400400004024086
:102490000C00002000080240043200080832000846
:1024A00018320008800900202C3200084032000851
:1024B00088090020840900204C3200085C320008A2
:1024C0006832000880B400AF074B1B68074A926867
:1024D000920A02F0070206498A5CD3401846BD46BC
:1024E0005DF8047B704700BF000000200038024008
:1024F0009432000880B400AF074B1B68074A92680B
:10250000520B02F0070206498A5CD3401846BD46CA
:102510005DF8047B704700BF0000002000380240D7
:102520009432000880B582B000AFFDF7B9FE1923E0
:10253000FB71C023BB7100237B7104233B713D4BB6
:1025400000225A603B4B1B683A4A43F480331360C5
:1025500000BF384B1B6803F40033002BF9D0354B18
:102560001B6C344A43F080531364334B1B68324A6C
:1025700043F440431360314B1B68304A43F4E0633B
:1025800043F0030313602B4B5B683A7911067A79A9
:1025900012041143BA7992011143FA790A431146A0
:1025A000244A0B435360234B5B68224A43F4800365
:1025B0005360204B1F4A9B6893601E4B9B681D4ACB
:1025C00043F4805393601B4B1A4A9B689360194BEA
:1025D0001B68184A43F08073136000BF154B1B68DB
:1025E00003F00073002BF9D0124B9B68114A43F0A3
:1025F0000203936000BF0F4B9B6803F00803082B96
:10260000F9D1FDF75FFEFFF75DFF03461A460C4B5D
:102610001A60FFF76FFF03461A460A4B1A60054B14
:102620005B6C044A43F48043536400BF0837BD46E3
:1026300080BD00BF0038024000700040003C0240F6
:10264000780900207C09002080B594B000AFF860C4
:10265000B9607A6007F13C00FB681E4A132100F064
:102660009DF807F12800BB681A4A132100F096F87C
:1026700007F114007B68174A132100F08FF800203F
:10268000FFF724F800210020FFF7A2F807F13C0330
:10269000012211491846FFF72FF910210020FFF7FA
:1026A00097F807F1280301220B491846FFF724F990
:1026B00020210020FFF78CF807F1140301220649BE
:1026C0001846FFF719F9FEF7D5FF00BF5037BD4692
:1026D00080BD00BF803200080400002080B586B0B5
:1026E00000AF7860144A154BD31A7B617B693B615C
:1026F000134B1B68002B02D1114B124A1A60104B6E
:102700001A687B6813443A699A4207D200F084F849
:1027100003460C221A604FF0FF3309E0084B1B6898
:10272000FB60074B1A687B681344054A1360FB681B
:1027300018461837BD4680BD000002200004000086
:102740008C090020D80A00200D488546FDF7A8FD19
:102750000C480D490D4A002302E0D458C4500433FC
:10276000C4188C42F9D30A4A0A4C002301E01360D2
:102770000432A242FBD300F055F8FFF7C5FDFEE797
:102780000000022000000020700000204C3A0008E9
:1027900070000020D80A0020FEE700000CB430B51D
:1027A000184B0C1E1D689DB008DA8B232B604FF070
:1027B000FF301DB0BDE8304002B070474FF40273E7
:1027C000ADF814304FF000031B9314BF04F1FF3336
:1027D0002346049307934FF6FF7302900690ADF8DB
:1027E0001630209A21AB02A92846019300F0A6F9E1
:1027F000431CBCBF8B232B60002CDAD0029B002231
:102800001A70D6E72000002002440346934200D10C
:10281000704703F8011BF9E7014B1868704700BFC8
:102820002000002070B50D4B0D4D5B1B9C10002649
:10283000A64209D100F06EFC0A4D0B4B5B1B9C10AD
:102840000026A64205D170BD55F8043B98470136D5
:10285000EEE755F8043B98470136F2E7443A0008A2
:10286000443A0008443A0008483A00087047704764
:102870000A44914200F1FF3300D1704710B511F8BE
:10288000014B03F8014F9142F9D110BD38B505460F
:10289000002941D051F8043C0C1F002BB8BFE418AC
:1028A00000F0E0F81D4A136833B9636014602846ED
:1028B000BDE8384000F0DCB8A34208D920682118F0
:1028C0008B4201BF19685B6809182160EDE71A4661
:1028D0005B680BB1A342FAD911685018A0420BD122
:1028E00020680144501883421160E0D118685B6889
:1028F000536008441060DAE702D90C232B60D6E756
:10290000206821188B4204BF19685B68636004BFAC
:10291000091821605460CAE738BD00BFD40A0020FE
:1029200070B50F4E0C463168054611B900F0ACFB8E
:1029300030602146284600F0A7FB431C03D14FF02E
:10294000FF34204670BDC41C24F00304A042F8D01C
:10295000211A284600F098FB0130F2D1EFE700BFC2
:10296000D00A00202DE9F843CD1C25F003050835D9
:102970000C2D38BF0C25002D064601DBA94204D9D9
:102980000C2333600020BDE8F883DFF8D48000F02A
:1029900069F8D8F800301C4644BB29463046FFF79A
:1029A000BFFF431C044658D1D8F800402746002FEB
:1029B00043D1002C4BD023683946304604EB030941
:1029C00000F062FB814542D121686D1A29463046EC
:1029D000FFF7A6FF01303AD023682B442360D8F8D4
:1029E00000305A6862BBC8F800700FE02268521BC2
:1029F00020D40B2A17D96119A342256018BF59604A
:102A0000636808BFC8F8001062514B60304600F0A0
:102A10002FF804F10B00231D20F00700C21A1CBF81
:102A20001B1AA350AFE76268A3420CBFC8F800208E
:102A30005A60EBE723466468AEE73C467F68B6E73A
:102A40001A465B68A342FBD100235360DEE70C23E8
:102A50003360304600F00CF894E70560D6E700BF1D
:102A6000D40A00200148FFF701BF00BFCC0A0020B4
:102A70000148FFF7FCBE00BFCC0A00202DE9F0475B
:102A80008E681F46BE4282460C469046334653D857
:102A9000B1F90C0010F4906F2BD0656923680969B7
:102AA00005EB4505A3EB010905EBD5757B1C6D1006
:102AB0004B44AB422A4684BF1D462A46430527D5D0
:102AC00011465046FFF74EFF064658B321694A4665
:102AD000FFF7CEFEA38923F4906343F08003A38124
:102AE000266165614E44A5EB09052660A5603E465A
:102AF0003B461F4620683A46414600F0ABFAA368C1
:102B00009B1BA36023683B4423600020BDE8F08743
:102B1000504600F0C9FA06460028E1D12169504626
:102B2000FFF7B4FE0C23CAF80030A38943F040033A
:102B3000A3814FF0FF30E9E73E46DBE72DE9F047A0
:102B40001F468B891B069CB006460D46144610D5C1
:102B50000B6973B94021FFF705FF2860286130B980
:102B60000C2333604FF0FF301CB0BDE8F0874023EA
:102B70006B610023099320238DF8293003973023BC
:102B8000654F8DF82A304FF001082346994613F817
:102B9000012B0AB1252AF9D1B9EB040A0BD053460F
:102BA000224629463046FFF769FF013000F0A48035
:102BB000099A5244099299F80030002B00F09C8049
:102BC00000234FF0FF32CDE9052309F101090493F9
:102BD00007938DF853301A934C464F4814F8011B55
:102BE0000522FDF70DFB049BD0B9D80644BF202277
:102BF0008DF85320190744BF2B228DF8532099F8E4
:102C000000202A2A13D0079A4C4600204FF00A0CC5
:102C1000214611F8013B303B092B49D968B913E033
:102C2000C01B08FA00F018430490A146D4E7039AA9
:102C3000111D12680391002A01DB079204E0524241
:102C400043F002030792049323782E2B0AD1637872
:102C50002A2B32D1039B1A1D1B68039243EAE373AC
:102C600002340593DFF8C090217803224846FDF72F
:102C7000C7FA38B1049BA0EB0900402282401343FD
:102C80000134049314F8011B24488DF828100622FF
:102C9000FDF7B6FA002835D0214818BB039B07334F
:102CA00023F0070308330393099B034409936CE75C
:102CB0000CFB02320C460120AAE7002301340593E5
:102CC00019464FF00A0C204610F8012B303A092A19
:102CD00003D9002BC6D00591C4E70CFB01210446A3
:102CE0000123F0E703AB00932A460E4B04A93046BC
:102CF000AFF30080421CD7D1AB895B063FF532AF02
:102D0000099831E703AB00932A46064B04A93046E5
:102D100000F07AF8EEE700BF083A0008123A00081F
:102D2000000000007D2A00080E3A00082DE9F04757
:102D3000164698468A680B69DDF820909342B8BF22
:102D40001346336091F8432007460C460AB101331D
:102D500033602368990642BF3368023333602568C5
:102D600015F0060506D104F1190AE36832689B1ACA
:102D7000AB4226DC94F843302268003B18BF0123A5
:102D800092062BD404F1430241463846C84701302D
:102D90001ED02368226903F00603042B02BFE568F6
:102DA0003368ED1AA3680CBF25EAE5750025934248
:102DB000C4BF9B1AED1800261A34B5421AD1002060
:102DC00008E00123524641463846C847013003D146
:102DD0004FF0FF30BDE8F0870135C6E7E1185A1C17
:102DE000302081F84300224494F8451082F84310C3
:102DF0000233C7E70123224641463846C84701301F
:102E0000E6D00136D9E700002DE9F0430D7E85B00C
:102E1000782D90460C9E07460C46994601F14302D8
:102E200007D8622D0AD8002D00F0D780582D00F069
:102E3000BC8004F1420684F842503BE0A5F16303F4
:102E4000152BF6D801A151F823F000BFA52E0008DC
:102E5000B92E0008332E0008332E0008332E000848
:102E6000332E0008B92E0008332E0008332E000838
:102E7000332E0008332E0008C12F0008E32E00086F
:102E8000732F0008332E0008332E0008E32F0008AC
:102E9000332E0008E32E0008332E0008332E0008DE
:102EA0007B2F000833681A1D1B68326004F142064C
:102EB00084F842300123A1E033682068191D316095
:102EC000060601D51D6803E04506FBD5B3F90050A1
:102ED000002D03DA2D236D4284F843305B480A232A
:102EE00011E021683368080653F8045B02D44906F0
:102EF00048BFADB23360237E54486F2B5CD10823AA
:102F0000002184F843106668A660002E05DB216866
:102F10002E4321F00401216050D01646B5FBF3F199
:102F200003FB115C10F80CC006F801CDAC466345FC
:102F30000D46F3D9082B0BD12368DB0708D523698D
:102F400061689942DEBF302306F8013C06F1FF3686
:102F5000921B2261CDF80090434603AA21463846D1
:102F6000FFF7E4FE01304ED14FF0FF3005B0BDE871
:102F7000F083236843F0200323603548782584F8E4
:102F800045502368316813F0800F51F8045B03D17A
:102F900013F0400F18BFADB23160D90744BF43F002
:102FA000200323601DB11023AAE72848E7E7236820
:102FB00023F020032360F6E70A23A1E71646B9E7CA
:102FC000336825686169181D30602E061B6801D5BD
:102FD000196002E06806FBD51980002323611646BC
:102FE000B8E733681A1D32601E68626800213046F7
:102FF000FDF706F908B1801B606063682361002358
:1030000084F84330A6E72369324641463846C8472C
:103010000130A9D023689B0713D4E068039B984232
:10302000B8BF1846A2E70123324641463846C84792
:10303000013099D00135E36803995B1AAB42F2DCA9
:10304000EBE7002504F11906F5E700BF193A00087F
:103050002A3A0008884210B501EB020402D98442E2
:10306000234607D8431EA14207D011F8012B03F8CD
:10307000012FF8E70244824200D110BD13F8011D70
:1030800002F8011DF7E7000038B5064D002304469D
:1030900008462B60FFF722FB431C02D12B6803B1CB
:1030A000236038BDC80A00202DE9F04107461446C8
:1030B0000D4621B9BDE8F0411146FFF753BC2AB9CE
:1030C000FFF7E4FB25462846BDE8F08100F01AF83A
:1030D0008442064602D8B4EB500FF4D82146384655
:1030E000FFF740FC804608B94546ECE7B44222466B
:1030F000294628BF3246FFF7BBFB29463846FFF773
:10310000C5FBF1E751F8043C181F002BBCBF0B585E
:10311000C0187047F8B500BFF8BC08BC9E467047A1
:0C312000F8B500BFF8BC08BC9E46704724
:10312C004D4F44455F4155544F0D0A004D4F44459A
:10313C005F4D414E55414C0D0A00000050554D500D
:10314C005F4F4E0041434B3A50554D505F4F4E0D23
:10315C000A00000050554D505F4F464600000000DD
:10316C0041434B3A50554D505F4F46460D0A0000B7
:10317C004D4953545F4F4E0041434B3A4D495354C4
:10318C005F4F4E0D0A0000004D4953545F4F4646A9
:10319C000000000041434B3A4D4953545F4F4646A3
:1031AC000D0A00004155544F5F454E41424C4500BD
:1031BC0041434B3A4155544F5F454E41424C450DAE
:1031CC000A0000004155544F5F44495341424C455D
:1031DC000000000041434B3A4155544F5F44495362
:1031EC0041424C450D0A000041434B3A554E4B4E63
:1031FC004F574E0D0A00000000000000496E697424
:10320C0069616C697A696E672E2E2E0044485431C0
:10321C0031204F4C454420534831313036000000AA
:10322C00543A20257520432020483A202575252521
:10323C00000000004448543131204572726F720016
:10324C004C3A2575206C7820533A202575000000E7
:10325C004C7578204572726F72000000543A2575D7
:10326C002C483A25752C4C3A25752C533A25750A61
:10327C0000000000257300000000000000000000AA
:10328C000102030406070809000000000102030400
:10329C000000000000000000000000000000000022
:1032AC0000000000001000100010001000100010B2
:1032BC00000000100000000000280028002800007A
:1032CC0000000000000000000000000000240024AA
:1032DC00007C00240048007C0048004800000000EE
:1032EC0000380054005000380014005400540038CA
:1032FC00001000000020005400580030002800543A
:10330C000014000800000000001000280028001025
:10331C000034004800480034000000000010001089
:10332C000010000000000000000000000000000081
:10333C0000080010002000200020002000200020A9
:10334C000010000800200010000800080008000809
:10335C0000080008001000200010003800100028A1
:10336C000000000000000000000000000000000051
:10337C0000100010007C0010001000000000000085
:10338C000000000000000000000000000000001021
:10339C0000100010000000000000000000000038C9
:1033AC000000000000000000000000000000000011
:1033BC0000000000000000100000000000080008E1
:1033CC000010001000100010002000200000000071
:1033DC0000380044004400540044004400440038C9
:1033EC000000000000100030005000100010001011
:1033FC0000100010000000000038004400440004DD
:10340C00000800100020007C000000000038004480
:10341C000004001800040004004400380000000000
:10342C0000080018002800280048007C000800084C
:10343C0000000000007C0040004000780004000404
:10344C0000440038000000000038004400400078C0
:10345C00004400440044003800000000007C0004DC
:10346C0000080010001000200020002000000000C8
:10347C000038004400440038004400440044003844
:10348C00000000000038004400440044003C0004EC
:10349C000044003800000000000000000010000094
:1034AC000000000000000010000000000000000000
:1034BC0000000010000000000000001000100010C0
:1034CC0000000000000C003000400030000C000038
:1034DC0000000000000000000000007C0000007CE8
:1034EC000000000000000000000000000060001858
:1034FC0000040018006000000000000000380044C8
:10350C000004000800100010000000100000000073
:10351C0000380044004C0054005C0040004000386F
:10352C000000000000100028002800280028007C63
:10353C00004400440000000000780044004400787F
:10354C0000440044004400780000000000380044AF
:10355C0000400040004000400044003800000000E3
:10356C0000700048004400440044004400480070CF
:10357C0000000000007C00400040007C0040004047
:10358C000040007C00000000007C004000400078FF
:10359C0000400040004000400000000000380044A3
:1035AC0000400040005C0044004400380000000073
:1035BC00004400440044007C0044004400440044A7
:1035CC000000000000380010001000100010001067
:1035DC000010003800000000000400040004000487
:1035EC0000040004004400380000000000440048BF
:1035FC0000500060005000480048004400000000EB
:10360C000040004000400040004000400040007C72
:10361C00000000000044006C006C005400440044A6
:10362C0000440044000000000044006400640054A6
:10363C000054004C004C00440000000000380044D2
:10364C0000440044004400440044003800000000E2
:10365C0000780044004400440078004000400040E2
:10366C0000000000003800440044004400440044C2
:10367C00005400380004000000780044004400446A
:10368C000078004800480044000000000038004466
:10369C000040003000080004004400380000000026
:1036AC00007C001000100010001000100010001022
:1036BC000000000000440044004400440044004466
:1036CC00004400380000000000440044004400287E
:1036DC0000280028001000100000000000440044E6
:1036EC00005400540054006C002800280000000016
:1036FC000044002800280010001000280028004476
:10370C0000000000004400440028002800100010B5
:10371C000010001000000000007C000400080010E5
:10372C00001000200040007C000000000018001079
:10373C0000100010001000100010001000100018F5
:10374C0000200020001000100010001000080008DD
:10375C0000000000003000100010001000100010DD
:10376C000010001000100030001000280028004449
:10377C00000000000000000000000000000000003D
:10378C00000000000000000000000000000000FE2F
:10379C0000200010000000000000000000000000ED
:1037AC00000000000000000000380044003C004411
:1037BC00004C003400000000004000400058006441
:1037CC0000440044006400580000000000000000A9
:1037DC000038004400400040004400380000000065
:1037EC00000400040034004C00440044004C00343D
:1037FC00000000000000000000380044007C004085
:10380C000044003800000000000C0010007C001088
:10381C00001000100010001000000000000000005C
:10382C000034004C00440044004C00340004007888
:10383C000040004000580064004400440044004430
:10384C0000000000001000000070001000100010BC
:10385C0000100010000000000010000000700010AC
:10386C000010001000100010001000E0004000409C
:10387C000048005000600050004800440000000068
:10388C00007000100010001000100010001000104C
:10389C0000000000000000000078005400540054A8
:1038AC0000540054000000000000000000580064A8
:1038BC0000440044004400440000000000000000EC
:1038CC00003800440044004400440038000000006C
:1038DC0000000000005800640044004400640058DC
:1038EC0000400040000000000034004C0044004444
:1038FC00004C003400040004000000000058006478
:10390C0000400040004000400000000000000000AB
:10391C00003800440030000800440038000000006B
:10392C00002000200078002000200020002000183B
:10393C00000000000000000000440044004400446B
:10394C00004C003400000000000000000044004463
:10395C0000280028002800100000000000000000D3
:10396C00005400540054006C002800280000000093
:10397C000000000000440028001000100028004443
:10398C000000000000000000004400440028002853
:10399C00001000100010006000000000007C000807
:1039AC00001000200040007C0000000000180010F7
:1039BC000010001000200020001000100010001853
:1039CC00001000100010001000100010001000106B
:1039DC00001000100030001000100010000800084B
:1039EC0000100010001000300000000000000074F7
:1039FC00004C00000000000000000000232D302BC4
:103A0C002000686C4C0065666745464700303132D3
:103A1C00333435363738394142434445460030312A
:103A2C003233343536373839616263646566000089
:083A3C00A4C7FF7F0100000098
:043A4400C5010008B0
:043A4800A1010008D0
:103A4C000024F400070A00009C32000800440040E7
:103A5C000000000000C20100000000000000000097
:103A6C00240000200000000090090020F80900202C
:103A7C00600A0020000000000000000000000000B0
:103A8C00000000000000000000000000000000002A
:103A9C00000000000000000000000000000000001A
:103AAC00000000000000000000000000000000000A
:04000005080027497F
:00000001FF
